:020000040800F2
:1000000000500020C9A4000875A500089D8E0008B6
:1000100075A5000875A5000875A50008000000007A
:1000200000000000000000000000000075A50008AE
:1000300075A500080000000075A50008818E000865
:1000400075A5000875A5000875A5000875A5000828
:1000500075A5000875A5000875A5000875A5000818
:1000600075A50008918E000875A5000875A5000803
:1000700075A5000875A50008E98D000875A500089C
:1000800075A5000875A5000875A5000875A50008E8
:1000900075A5000875A5000875A5000875A50008D8
:1000A00075A50008B18D000875A50008C18D000870
:1000B000A18D0008918D0008818D0008318E000807
:1000C000298E00082D8E0008258E000875A50008D1
:1000D00075A50008DD8D0008D18D000875A5000804
:1000E000978E000875A5000875A50008000000009F
:1000F0000000000000000000000000000000000000
:0C01000000000000000000005FF808F1A3
:100110002DE9F04F664B674D9DB02B6000236B605F
:1001200007F0D9FF18B907F053FA08F03FF807F0C5
:10013000B1F8614B614C1A78614F42F001021A70BC
:100140000022089209920A924FF4E0120B92226860
:10015000B97B42F480322260A26942F01002A261AF
:10016000236803F400330993089B01330893099B28
:100170001BB9089BB3F5A06FF2D122684F4B12F464
:10018000003201D0022315E0186840F00100186029
:100190000892236803F002030993089B0133089334
:1001A000099B1BB9089BB3F5A06FF2D12368980790
:1001B00034D501230A93434B434E1A6842F0100290
:1001C0001A601A6822F003021A601A6842F00202EA
:1001D0001A606368394A636063686360636843F404
:1001E00080636360394B1868043B20F070405860AE
:1001F00037480660666826F47C1666605E6846F0DE
:1002000000465E60DE6826F40046DE604FF4E016CD
:100210000B960A9E9846012E01D118E0FEE7022EA9
:1002200019D169B10B9BB3F5801F02D14FF4A01314
:1002300005E00B9BB3F5E01F02D14FF400130B93C5
:1002400062680B9B134343F48033636003E053689D
:1002500043F460135360236843F080732360226883
:10026000164B9201FBD55A6822F003025A605A6875
:1002700042F002025A606368104A03F00C03082B34
:10028000F9D15168134B01F00C01042903D008295E
:1002900004D00D4A00E002681A6027E051685668F1
:1002A000C1F38341F60301F1020117D40A4A1BE0AE
:1002B000E16C0008940B0020D018002000100240D0
:1002C000A00200200020024000127A000410014029
:1002D0001C0000204000002000093D00526812F47C
:1002E000003F026818BF52085143196062687449A0
:1002F000C2F30312885C1A681CAEC2401A60D8F8B8
:100300000830DFF8F0A113F4004F6E4B14BF022148
:10031000012119706C4B6D494FF0000BD960A16938
:10032000504641F00101A161616A0DF17009A960B7
:10033000616A41F080716162A16941F01C01A161B3
:100340004FF6FF7126F82C1D3146049203938DF869
:1003500046B005F075F85E48314605F071F85D4825
:10036000314605F06DF810218DF8321002218DF81C
:1003700033104FF4007129F8401D5046CAF8101090
:10038000494605F05DF85449486840F000704860FF
:10039000304604F0D1F911995048C5F810B0B1FBBE
:1003A000F0F1E9604E49DFF850C1C1F804B0049A99
:1003B0004FF47A71B2FBF1F24A49039B013A4A6069
:1003C000F02283F823200723C1F808B00B60BB6834
:1003D000DFF814B1B646CBF80030BCE80F00AEE849
:1003E0000F009CE80300A3698EE8030043F01003AC
:1003F000A361A36918AA43F01003A361A36943F0A2
:100400001003A3614FF48043C8F810304FF4005339
:10041000C8F810304FF40043C8F8103012AB53F84E
:10042000040C19460492039305F00AF8039B049AFE
:1004300008339342F3D12C4803681B0762D597F821
:100440001E31012B5ED8294B93F81F21AB6813F0A6
:10045000805A00F01C830023002B53D0244B4FF410
:10046000005B1868C8F814B031461190214804F0B8
:10047000E7FF204908230B613C2004F078FEC8F810
:1004800010B04FF0000B97F81F319B4536DA194832
:100490004FF400420823C8F81020436178200492EA
:1004A000039304F059FE049A039B1249C8F81420E0
:1004B00078200B6104F050FE0BF1010BE3E700BF65
:1004C00014D60008E718002000ED00E00005FA054A
:1004D000000C0140001001400000014040420F00AC
:1004E000A40B002010E000E0BC000020A0020020CF
:1004F0003CD600080008014024D60008BAF1000FDD
:1005000000F0CB82642004F032FEBD480021A0221E
:100510000BF0FBFDE36943F00703E361A36943F4D8
:10052000006343F00C03A3610023B64C4FF0000AB4
:1005300004F1180203F802A001330E2BF5D1FF23BA
:10054000DFF8FCB284F8263084F8273084F82830AD
:1005500084F8293051460223182204F1340084F82B
:100560003030C4F82CB00BF0D0FD97F80580012393
:1005700084F840304846ABF5B3735146142284F8F2
:100580004C8023650BF0C1FDB8F10E0F04D008F0CC
:10059000EF08B8F1080F02D101238DF83A3097F92E
:1005A0007821994B012A01F0068093F98021012AD4
:1005B00001F004800023954A8DF835301368C3F3A9
:1005C00040028DF83620C3F380128DF83820C3F333
:1005D00040328DF83020C3F3C0328DF8332013F44D
:1005E000006207D097F81221B2F1010EDEF100028D
:1005F00052EB0E02C3F38040B7F8D4408DF834209C
:100600008DF83700C3F30042B7F8E0008DF83920C9
:1006100003F00101C3F3C002ADF83E40DC048DF8E5
:1006200031108DF83220ADF83C0004D5764BB3F88C
:10063000DC30ADF83E30B0F5FA7F84BF0023ADF872
:100640003E3097F86231724885F85430002385F8BF
:10065000553043709DF83A30002B14BF022300231D
:1006600001B902B101336B484FF0000800EB83037E
:10067000DB6AC146059305984FF6FF7230F80830E3
:10068000934200F0FA80DAB2634C9DF835104FEADD
:10069000021B1B0A5C4419B1023A012A40F2E780AE
:1006A0009DF836203AB162685C498A4203D12289BA
:1006B000082A00F0DC80022B3BD19DF83020002A74
:1006C00000F0D5805FFA89F21C20424354494FF074
:1006D000000A8F18012087F8019087F802A087F898
:1006E0000AA088542189627B6068ADF84410FC60E0
:1006F00031468DF846208DF8473004F0A1FE464B78
:10070000A17A53F80B00524604F071F8204607F026
:10071000E3FB444BC7F818A03B61434B20467B6189
:1007200007F1100107F1140204F0C4FE09F10109F8
:100730009DE0012B3ED19DF83130002B00F09780D9
:10074000FF2385F89C3085F89D30637B0027228944
:1007500060688DF846303146022385F8A070C5F8F0
:10076000AC408DF84730ADF8442085F85870EF65FF
:100770002F666F66C5F8987085F89E7085F89F7033
:1007800004F05EFE244AA17A52F80B003A4604F0C7
:100790002EF8204607F0A0FB244B2549C5F8B030C1
:1007A000244BC5F8B870C5F8B43020460A1D04F0D3
:1007B00081FE5CE0032B5AD19DF83730114F3BB1DD
:1007C00097F856A0204608214FF6FF72002341E01B
:1007D000BDF83C3097F856A0B3F5FA7F32D9164AE7
:1007E0002046B2FBF3F20821BDF83E3092B205F08C
:1007F000A5F907EB8A03C3F88001104B31E000BF75
:1008000084170020940B0020A0020020BC000020D0
:10081000E90B002014D60008C8D9000800080140E0
:10082000340C0020E949000811450008354400084F
:10083000440C00203945000800127A005945000890
:1008400016040020A54A2046B2FBF3F2BDF83E3064
:10085000012192B205F072F907EB8A03C3F8800117
:100860009F4BC36097F85630013387F8563008F134
:100870000208B8F11C0F7FF4FEAE9A4B04221A70E6
:100880000024994D994B254423441034402C0FCB20
:1008900085E80F00F5D1964B96491C680A68964B7F
:1008A00002F480571D6800230FB1A18800E0A988D9
:1008B000924819520233182BF6D1500302D4904BB0
:1008C00001221A708F4A0020137843F0040313703A
:1008D00007F080FD874B8C481F68002107F0020756
:1008E00010220BF012FCEFB18848002302680121AE
:1008F000994001F00800884205D199000F2000FAC4
:1009000001F122EA01020133082BF0D17F49804B2B
:100910000A60032283F8B0210127072283F8B2710D
:1009200083F8B3217B4B7C4D5A68284642F4404201
:100930005A605A69002442F001025A619A6942F4ED
:1009400000729A6103F080FE744B31461193744B30
:10095000284612934FF4807317934FF480631893D3
:10096000202319934FF4005314971A93139415945A
:100970001B94169403F04AFE2B68013F43F00103D9
:100980002B60684BFFB25A6822F4702222F4807206
:100990005A609968644A0A4042F4602242F00202B6
:1009A0009A60DA6A22F4700242EA0757DF62012392
:1009B000554A11198878002851D0A25C581C092A80
:1009C000CF78C0B2574910D9A2F10A0505EB450509
:1009D0004FF0070E0EFA05FEAF40D1F80CC02CEA1E
:1009E0000E0E4EEA0705CD600DE002EB42054FF01A
:1009F000070E0EFA05FEAF40D1F810C02CEA0E0E1D
:100A00004EEA07050D61062B46490CD8013B03EB66
:100A100083031F259D409A404F6B27EA050545EA51
:100A200002034B631CE00C2B0CD8073B03EB830346
:100A30001F259D409A400F6B27EA050545EA0203F2
:100A40000B630DE00D3B03EB83031F259D409A4094
:100A5000CF6A27EA050545EA0203CB6200E01846A3
:100A60000434102C01D00346A2E72E4B9A6842F4BE
:100A700080729A609A6842F001029A609A6842F025
:100A800008029A609968274A09070CD5FAE7531EAD
:100A9000092B8CBF00230123DEE4244B83F81FA124
:100AA00006F08CFD2EE5936843F0040393601D4A25
:100AB000936813F00403FAD11C4D9168B5F8E8006F
:100AC00041F4A0019160A0BBB5F9EA3083BBB5F950
:100AD000EC30D3F1010338BF00232AE040420F007D
:100AE00049450008600A0020700A002050D600081E
:100AF000740B0020BC0000206C0B00207A0B00203F
:100B0000780B0020D0180020440D00200008014080
:100B1000940B002000100240080002404C240140C9
:100B2000540D002000240140FDF7F1FFA002002039
:100B3000034613F001031CD1B64A00B2137108F04A
:100B400083FAB54908F0D4FA1190B5F9EA0008F033
:100B50007BFAB14908F0CCFA1290B5F9EC0008F034
:100B600073FAAD4908F0C4FAAC491390304607F067
:100B7000DFF9DFF8E482AA4CD8F800300021B3F89E
:100B800056300C22A74805930027B5F8F09095F849
:100B9000EFB095F8F7A095F8F8600BF0B6FA0021E1
:100BA0001022A1480BF0B1FA39460C2284F8EC71FE
:100BB00084F8ED7104F5F8700BF0A7FA2320C4F85F
:100BC000FC7104F0D4FA752001210DF11D0207F02B
:100BD000C3FE002868D0954B3846C4F8F431944BD6
:100BE0000121C4F8F8310DF11E02432384F8F031DD
:100BF00007F0B2FE9DF81E3003F07E038DF81E3024
:100C000040B1682B06D1012384F8EC311D2384F810
:100C1000F03149E09DF81D3003F07E03682B8DF81C
:100C20001D303CD10223062084F8EC310146D4F873
:100C3000F43111AA98479DF847309DF8498003F098
:100C400001035B0008F0010843EA88089DF845307D
:100C5000734F03F0010358EA03080BD0B8F1010FFA
:100C600001D1002303E0B8F1020F0FD1012387F86F
:100C7000ED3119E0D7F8F4310C2001210DF11F02FC
:100C800098479DF81F3013F00F0303D1032007F09E
:100C900045FA09E0042BE9D187F8ED8104E0702BD7
:100CA00004BF042384F8EC31624B00221A7094F8DC
:100CB000EC21022A40F07B845B4B5F4A5F4F1A6055
:100CC0005F4ABBF1090F5A605E4ADA604FF00103D8
:100CD0003B705D4B1A68184642F00101196000F242
:100CE0004A84012101FA0BF140F2B2330B40002B90
:100CF00040F0398411F04D0F00F0358453490B70EA
:100D0000484B534919605349596094F8ED11002933
:100D100014BF6E216F21197203231A437B70026086
:100D2000042E00F29D804FF0010808FA06F313F03C
:100D3000160B40F09B8013F0090F00F08F800A2003
:100D400004F015FA7720A02142460DF11F0307F0A9
:100D500096FC002800F08A8077201E21424607F08A
:100D600041FC4FF42F6004F0F7F9ABF1600100266D
:100D7000C9B2022211AB77208DF844608DF845602E
:100D800007F07DFC9DF845309DF8441043EA0121B1
:100D9000234B03F500722BF802100BF1020BBBF191
:100DA000100FE2D1B3F80E02012200F00F0100F49F
:100DB0007F40A3F80E02334623F0010EA644BEF88E
:100DC00000E2BEF1000F18BF002213F0010F06D0A1
:100DD0005FFA8EFE86EA0E064FF0080E02E086EA03
:100DE0001E26F9E716F4004F18BF86F4C056BEF170
:100DF000010E4FEA4606F5D10133102BDCD1084332
:100E0000A4F80E0292BBC6F30336B14200F0B783DA
:100E10002CE000BF1C00002035FA8E3C5C0D002049
:100E2000940B0020880900201C0900205989000823
:100E30007586000832090020BD7B000838000020BC
:100E40007D45000890C1793D60020020E418002033
:100E5000917B0008C545000818090020012E05D027
:100E6000334BBE701A6842F004021A60304E336889
:100E70009B0702D52F4B1B6898472F4B48461B6892
:100E800098472E4B00221A709946BAF1000F03D0F2
:100E9000BAF1020F40F084831CAB03F82C2DC4F888
:100EA00010221E200A21012207F0E9FB002800F091
:100EB00077839DF84430482B40F07283204B214AC1
:100EC0001A60214A5A600223FB70336843F008031A
:100ED000336095F8E4300BB11C4A137095F8E53097
:100EE0000BB11B4A137095F8E6300BB189F800304E
:100EF00033681E0732D5059B64270FFA83F898FBE9
:100F0000F7F6304608F0A0F8814607FB168000B2DD
:100F100008F09AF80F4908F0EBF80146484607F048
:100F2000DFFF0D4908F0E4F8C4F8140219E000BF2F
:100F300060020020880900201C090020E51800201C
:100F40008C020020B9870008418700083209002080
:100F5000E41800208988883C000020410023C4F860
:100F60001432A34BA34E1A784FF00F0842F002023E
:100F70001A704FF4005272614FF480423261F3688C
:100F8000192083F40053F360F36808F1FF3883F409
:100F90008043F360F368974F83F40043F36004F0F9
:100FA000E6F8192004F0E3F818F0FF08E7D14FF451
:100FB00080433B614FF400568F4B3E611A68984660
:100FC00012F0080F07D08D4B7E611B6898478C4B41
:100FD00001223E611A708B4B8B4E1B68187B08F008
:100FE00033F88A4908F084F8894907F079FF04F05A
:100FF0004CF90746308808F027F8394608F078F8A9
:101000000BF0A0F8834B1880308808F01DF80146DB
:10101000814808F021F9814908F01EF9804B7B498D
:101020001860804B804ED86808F062F87F4908F05D
:101030005FF87F4B1B221860FF2106F506700BF04E
:1010400064F8002384F81832D8F800300122980799
:1010500084F8332207D586F81922032286F8332232
:10106000022286F81A22590708D594F83322511C17
:1010700084F833122244032182F8181213F00A0F65
:1010800014D094F833320421E21882F818125A1C52
:10109000D2B22244052182F81812DA1C0233DBB2E4
:1010A00084F833222344062283F81822614F3B68D8
:1010B0009A0608D594F83322511C84F8331222443E
:1010C000072182F818126A79082A01D00E2A08D15D
:1010D00094F83322511C84F8331222440B2182F8F5
:1010E000181294F833224FF00C0EA618511CC9B2F6
:1010F00086F818E25E074C4884F8331206D50232AF
:1011000080F833220144102281F8182294F8332207
:101110004FF0120EA618511CC9B286F818E25E05EF
:10112000414884F8331209D595F8886136B1023206
:1011300080F833220144132281F818229E0508D535
:1011400094F83322511C84F833122244152182F87A
:101150001812D80508D594F833325A1C84F8332273
:1011600023441A2283F818220021982232480AF0D8
:10117000CCFF012003F018FE0026002860D0012ECD
:101180005ED84FF04C0C0CFB06FADFF8ACB00BEB62
:101190000A0999F84A80B8F1000F02D00136F6B278
:1011A000EBE70179254B90F9002003EB8103032144
:1011B0008DE802011046DB6F01214246CDF810C0D8
:1011C00007F064FDDDF810C0034668B148464146AB
:1011D000624603930AF099FF039B4BF80A30012300
:1011E0001E4489F84A30F6B2012003F0BDFDC4E781
:1011F000D018002000100140600200208C02002066
:10120000C0070020D00900200A00002035FA8E3CDB
:10121000DB0FC93FEC0900200AE81C4100401C46D6
:10122000F80800201C090020940B0020BD378635EB
:10123000CC090020BC000020C80D002014D60008F6
:10124000B5F8DE306E496F48A4F8D03200230B8029
:101250008B7001686C4A01F1790EB5F824016B4975
:10126000C4F8CC220A6084F8D23282B2684E69494E
:1012700036685A5206F5167C674E46F813C002339C
:10128000242B8C46F2D13E68F10454BFB5F82A31C4
:101290001346ACF8063000231EF80320B2B90EEB5B
:1012A0000302917892F8038041450FD209B10139C8
:1012B00001E008F1010101EB8101527801EB8101AC
:1012C00001F5617189B204322CF812100433502BED
:1012D000E2D1330740F1E58095F81E31062B00F28C
:1012E000DA80DFE803F004070E355171710045F232
:1012F000F05201E042F6F822484B1A8007F0F4FC65
:10130000C8E0464B42F6F8221A8000010A2390FBFF
:10131000F3F0A0F5B0600023414A98500433482B05
:10132000FAD1404B404A40209A60122384F81C3383
:1013300003F03AFD002800F0AE8001234FF00709CA
:1013400090F9000040218DE80802384A384B9CE0B3
:10135000324B42F6F8221A80324B364A40209A60CD
:10136000102384F81C3303F01FFD002800F0938045
:1013700001234FF0000890F9000040218DE808019A
:101380002D4A4FF4E13380E0244B42F6F8221A80D4
:10139000244B2A4A40209A60082384F81C3303F027
:1013A00003FD002877D001234FF0000C90F90000D6
:1013B00040218DE80810224A4FF4E13307F066FC23
:1013C000204BC3F8200362E0144A42F6F821118052
:1013D000062B4FF00C021C4884F81C2336D0002347
:1013E000037084F8243384F825331B2384F82633D0
:1013F000052384F8272384F828334FF4E13633E0BB
:10140000480B002018090020B6030020C40000206B
:10141000CC1800202A020020680E00202C0A002090
:10142000180100201C000020A941000805510008F7
:10143000A086010099410008555000088541000828
:1014400009500008940B0020FC01002000210170CD
:1014500084F8241384F825135C4E212184F8261384
:1014600084F8272384F82833594A5A4B40209A603D
:1014700003F09AFC78B101234FF0000E564A90F920
:10148000000040218DE80840334607F0FFFB0030A4
:1014900018BF012028B9082003F06AFF4F4A4D4BBE
:1014A0009A603B68590405D5122284F81C234C49E4
:1014B000484A916042F201021A409AB1494A44F600
:1014C000206111809A0405D5082284F81C2346491E
:1014D000404A9160DB0705D50C2384F81C33434A4E
:1014E0003C4B9A6094F81C33043B84F81D3303F0A2
:1014F000E3FC3F4B18606B79052B03D13D4B4FF458
:10150000C8721A803C4B4FF47A721A803B4BC82247
:101510001A803B4B1A7842F008021A70394B1A783D
:1015200022F002021A703A6840F6020313406BB1CF
:10153000354B0122C4F82C33032384F83033334B6A
:101540001A700023A4F83233A4F83433AB680122B4
:101550003B602F4B1A702F4A137863F07F03137090
:101560001DB0BDE8F08FBBF1010F04D82A4B00225B
:101570001A70FFF7D5BB4FF0000BFFF7B2BB274B3C
:1015800042F210721A805A80254A03265A60254A70
:101590009A60254ADA60254A1A61254A5A615FE451
:1015A000BAF1010F7FF695AC4FF0000A69E4012013
:1015B00006F0B4FDD5E403F5BC7301E003F5C07398
:1015C0005B88003318BF0123FEF7F5BF90D00300FE
:1015D000454100081C000020F14E0008F9410008B8
:1015E000D54100082C0A0020E1410008ED41000827
:1015F0001C0A00209A090020E2180020E0180020B0
:101600009A020020E6180020A80300203C000020D9
:10161000780B0020D0180020E4180020CC07002010
:101620006D8600082187000865860008318700085C
:10163000FD410008744B2DE9F04FB3F90600734BE0
:1016400099B01F687B8998420FDBB0F5FA6FFE797D
:1016500007DAC21A5643A3F5FA6396FBF3F664362B
:1016600001E0C6F16406089601E064210891684B28
:101670000021B3F824219B460692664A1268049220
:1016800093F9EE20DDF810C092B207920A465E4B45
:10169000069CCB5E05931B1B03F2F31540F2E63468
:1016A000A54203D8002BB8BF5B4201E04FF4FA73A8
:1016B000022A049E4FF06405574C2ED096F81181F3
:1016C000B8F1000F04D04345CCBFC8EB030300239F
:1016D00093FBF5F86FF0630A34F818900AFB083AA8
:1016E00008F1010834F918800FFA89F4C4EB0804F2
:1016F00004FB0AF494FBF5F4A144484C21F804904F
:10170000BC1824796343464C93FBF4F36433089C80
:101710009BB2634393FBF5F52FE096F81281B8F185
:10172000000F04D04345CCBFC8EB0303002393FB59
:10173000F5F56FF0630904EB450809FB053A04EB86
:101740004505B8F90E80B5F91040344DC8EB0404D6
:1017500004FB0AFA079C9AFBF9FAC8EB0A0808FB93
:1017600004F8A5F80480BC7983EAE375A5EBE3757A
:1017700065432B4C95FBF4F56435DDF81080264B62
:10178000904498F801904FF0640805FB09F903F1C3
:101790001C0499FBF8F902F804909CF80B9003F1F3
:1017A0001F0405FB09F999FBF8F902F804909CF86D
:1017B0001590022A05FB09F503F1220495FBF8F5C3
:1017C000155518BF089D1C461ABF2533D55483F8FC
:1017D0002780059E069B114D9E4202DA6B5A5B42A2
:1017E0006B520231062902F101020CF1010C7FF467
:1017F0004EAF074FB7F82631984213DBB0F5FA6FBA
:10180000A8BF4FF4FA600EE02A0200205C0A002014
:10181000A002002018090020D00E00207C02002029
:101820000CFEFFFF1846C01A4FF47A725043C3F5FE
:10183000FA63B0FBF3F34FF0640C93FBFCF204EBA0
:1018400042016FF0630000FB0233098D04EB42029A
:10185000B2F92A000AB2821A534393FBFCFC904B64
:1018600061441B888F4E5B06E98042D58E4B1888F9
:101870008E4BB3F84030C01A00B207F0E5FB8C493C
:1018800007F036FC8B49804607F02AFB03F0FDFC8D
:101890008146404603F0F9FC8046B6F9020007F0A5
:1018A000D3FB8246B6F9000007F0CEFB4946029012
:1018B00007F01EFC414603465046039307F018FC10
:1018C000039B0146184607F009FB07F0D7FD494680
:1018D0003080504607F00CFC029A81464146104683
:1018E00007F006FC0146484607F0FAFA07F0C6FD85
:1018F0007080714B1A68994612F0020F6ED06F4BD0
:10190000626C1B6845F207219A1A8A42DFF89C81B3
:1019100064DD6B4EC8F8443003F076FF3378032B58
:10192000B8F8483021D10A2B2AD900232820337057
:1019300003F01DFC03F068FFB8F84A0003F024F937
:10194000604B61491B68DA7890FBF2F0421C082A70
:1019500028BF082258791B790A7092B250435A4323
:101960005A495B4B08801A800AE00A2B08D80323E7
:10197000554A337000231370544A1380544A13801D
:1019800032784F4B012A0CD002D3022A1CD025E01A
:101990004E4B1A88B4F848309A421FDD0123337049
:1019A00010E04B49B4F848200988914202DD022238
:1019B0001A7010E04549098801318A4202DD00228F
:1019C0001A700BE0082007E0414BB4F848201B8850
:1019D00001339A42E2DC072003F002F9D9F800A0B3
:1019E0003C4E1AF4006F00F09280344BE16C1A68A0
:1019F0002E4BC1EB020845F20721884540F3878052
:101A0000DA64304AB7F8DE10B5F906701568A7F544
:101A10007A77AA7A012A03D064D3022A20D063E01D
:101A20002D4A1F6D517B2D4A32F81100082297FB79
:101A3000F2F180B2791A014491FBF2F2196592B287
:101A400040F6E4414A43A3F8540028894FF47A71E0
:101A5000C0EB12324A43B5F9061092FBF1F242E0B4
:101A6000B5F80890C3F85890337858073CD51C480F
:101A700006F092FC18B91AF0100F18BF002707FBE8
:101A800007F2322392FBF3F31F44B5F906305F43AC
:101A90004FF47A7397FBF3F74F44A76524E000BF38
:101AA000220200207C020020040A0020D00E002028
:101AB00035FA8E3CDB0FC93FBC000020D418002053
:101AC000C40E0020C00E00203C000020C60E0020E6
:101AD000C80E0020E6180020440D0020540D002000
:101AE000B603002000229A65A36D4FF47A7203FBBF
:101AF00008F3D4E9180193FBF2F3C01841EBE3714A
:101B0000C4E91801AD4A002307F0FEFCA066AC4B07
:101B10001A68984612F4805F02D00A2003F060F839
:101B2000E76EA84D002F3BD0A74B2A6F1968994646
:101B30008A4235D895F87420B5F8763079687AB944
:101B4000012285F87420C95C89B185F8782073B9C1
:101B50003B78053B93420AD803F0AEF9E86706E00C
:101B6000002285F87420CB5C0BB185F87820B4F89E
:101B700076107A68934B525CFE2A03D10022A3F8B8
:101B800076200DE0FF2A02D103F014F808E0D9F81E
:101B900000000A2505FB020201311A67A3F876103E
:101BA00033785A0733D4D8F80020D70703D4874AAC
:101BB00043F001031370864B1B781D0703D4337861
:101BC00023F001033370834B1B68580702D5824A08
:101BD000128862B9814A12880AB1990705D4804BEC
:101BE0001B88003318BF012300E001233BB102230F
:101BF00084F87830337823F00103337005E03278CD
:101C0000D20758BF022384F8783003F055F9754C99
:101C100094F84A30012B40F044866A4E2368C6F897
:101C20008040C6F884303746D7F88400654D036895
:101C30005B689847002800F00486D5F884000368A4
:101C4000DB689847D5F8805095F848301BB92428B0
:101C500039D1012334E0012B04D14D280CBF0223DC
:101C600000232DE0022B04D13C280CBF03230023CA
:101C700026E0032B09D140284FF0000320D82B7118
:101C8000EB716871A87104231AE0042B06D1AB79BB
:101C900085F849005840A871052311E0052B21D192
:101CA0006A792B799A42AA7906D94240AA715A1CBC
:101CB0002B442A71187215E082420CBF06230023C0
:101CC00085F848300EE0414B1B785B070AD4464B41
:101CD0001B681B78834205D1444A454B1A60454A2C
:101CE000454BDA6095F8480006289DD195F84930B3
:101CF000462B00F0768500F2BD802C2B00F0DB84B3
:101D000049D8052B00F0538128D8022B00F03381ED
:101D10000DD8012B40F0E985032002F0FBFF0020E5
:101D200002F0C8FF012002F0C5FF0D2030E1032BB7
:101D300000F03281042B40F0D885062002F0EAFF43
:101D4000432002F0B7FF4A2002F0B4FF4D2002F01A
:101D5000B1FF312002F0AEFF00F05EBC262B00F098
:101D600089840CD8222B00F08283242B40F0BD857F
:101D7000042002F0CFFF214B986800F047BD282BCC
:101D800000F086842A2B40F0B085012002F0C2FFCB
:101D90001A4B5879FCE03A2B00F0528249D8342B88
:101DA00000F085832CD8322B40F09F85012002F073
:101DB000B1FF124B93F82001EAE000BF407E05001E
:101DC00050020020D00E0020CC180020E618002081
:101DD0009A02002060020020E01800209A090020EA
:101DE000E2180020C80D0020C00B0020EFBEADDEC1
:101DF000F04F00200400FA0500ED00E0A0020020F2
:101E0000362B00F0D484382B40F06F85764D0420BB
:101E100002F080FF95F8080102F04CFF95F80C01E4
:101E200002F048FF95F80B0102F044FF95F80D0110
:101E3000AEE0402B00F08A8410D83B2B00F01083DA
:101E40003D2B40F05285684D022002F063FF95F86B
:101E50006E0102F02FFF95F86D0199E0422B00F022
:101E60008384452B40F04185132002F053FF002569
:101E700000F0C1BC6E2B00F0E78145D8652B00F067
:101E8000C18023D84B2B00F0358409D8492B40F072
:101E90002C85022002F03EFF534B988900F084BC51
:101EA0004D2B00F03684642B40F01F85072002F094
:101EB00031FFE72002F0FEFE4B4B587902F0FAFEAC
:101EC000002002F0F7FE042000F0A0BC692B00F017
:101ED00097810AD8662B00F06381682B40F0058556
:101EE000102002F017FF002582E16C2B00F09B818F
:101EF0006D2B40F0FA84062002F00CFF3B4B186873
:101F000002F014FF3A4B99E1742B00F0F0820FD8E5
:101F1000702B00F01782C0F0C481722B00F0318367
:101F2000732B40F0E284082002F0F4FE01256CE3FC
:101F3000A02B00F091830BD8752B00F08582772BB6
:101F400040F0D3842B4E0025307802F0E3FE0CE302
:101F5000F02B00F06383FE2B40F0C784082002F0D2
:101F6000D9FE002002F0D9FE002002F0D6FE0020AB
:101F700002F0D3FE50E3042002F0CCFE432002F036
:101F800099FE4C2002F096FE462002F093FE4C2073
:101F900002F090FE00F04ABC032002F0BBFE0120DC
:101FA00002F088FE0B2002F085FE0020F0E71A20E8
:101FB00002F0B0FE0025104B585D013502F07AFEAC
:101FC0000B2DF8D100250D4B585D013502F072FE46
:101FD000082DF8D100250A4B585D013502F06AFE44
:101FE000072DF8D100F022BCA002002068020020DA
:101FF00054020020C70D0020A8DA0008B4DA000857
:10200000BDDA00080B2002F085FED6F88830BA4908
:10201000D86807F06DF807F057FA80B202F07DFE3D
:10202000B6F88C0080B202F078FEB44B1B68C3F3A4
:10203000C000C3F38002800040EA4200C3F34002C4
:102040001043C3F3401240EAC20003F010031843E8
:1020500002F063FEAA4B1A88AA4B12F0010F0CBFC4
:102060000025022512F0020F0CBF0026042612F0F4
:10207000040F0CBF0020102012F0400F0CBF0021F5
:10208000202112F0100F04950CBF00254FF40075AD
:1020900012F0200F1B6805960CBF00264FF48066D7
:1020A00012F4807F06900CBF00204FF400600A906D
:1020B00003F400200B9002F0080A03F0C00003F4C0
:1020C000807940EA0A0A03F480584AEA090A03F4CC
:1020D000005C4AEA080A03F4804E4AEA0C0A03F458
:1020E00000474AEA0E0A0791099603F4802103F497
:1020F00080364AEA070A0895019103F400354AEA56
:10210000060A03F480114AEA050A019D0C910B9E10
:102110004AEA050A0C984AEA060A4AEA000A7A4894
:1021200003F0007305784AEA0303C5F380052B43E7
:10213000049D059E2B4306983343079D0343089E49
:102140002B4309980A9D334312F4007F43EA0003AE
:1021500043EA05030CBF00214FF4001112F4806F15
:1021600043EA01010CBF00234FF080631943674B22
:1021700000201D780346AB420CD2654A9E5C0122CA
:1021800002FA06F60E4218BF9A4003F1010318BF87
:102190001043F0E702F0CAFD5E4B93F8EC04F7E65B
:1021A000122002F0B7FD5C4B00251B88B3F5806F51
:1021B00094BF01260826594BE85E023590FBF6F0E5
:1021C00080B202F0AAFD062DF5D1554D288802F007
:1021D000A4FD688802F0A1FDA888524D02F09DFD83
:1021E000288802F09AFD688802F097FDA888DBE253
:1021F0004D4B585D013502F05DFD102DF8D115E312
:102200004A4E00253078400000F0FE0002F082FDCA
:1022100033789D4280F00A83454B33F8150002F075
:102220007CFD0135F4E7434D062002F073FD28885C
:1022300002F073FD688802F070FD3F4B1888B3E22E
:10224000042002F067FDE0E2072002F063FDB6F82B
:1022500048004FF6FF77FF28A8BFFF20C0B202F06A
:1022600029FDB06E354DB842A8BF384620EAE0706F
:1022700080B202F052FDB6F88E0002F04EFD254B02
:1022800093F8133143B1AB6D0A205843B842A8BF4D
:10229000384620EAE07002E0A86D00F30F0080B23B
:1022A00082E2274D0B2002F035FD2B6800261878BE
:1022B00002F000FD2B682F46587802F0FBFC3B68CB
:1022C0001F4D33441879013602F0F4FC032EF6D189
:1022D0002B68D87902F0EEFC2B68987802F0EAFCC3
:1022E0002B68D87802F0E6FC2B68588902F015FDBF
:1022F0002B68187A4CE600BF00007A446002002088
:102300002202002050020020E6180020C70D002005
:10231000AC0D0020A00200200A0000201C020020BA
:102320002C09002094020020300B0020B00E002069
:102330002A02002018020020040A0020D00E0020EB
:102340005C0A0020BC4E1E2002F0E4FC336800252D
:102350001B78022B65D1336805F1080253F822007F
:10236000B64906F0C5FE09F0EDFE80F30800C0B2E4
:1023700002F0A0FC3368B24903EB8503D86A06F08B
:10238000B7FE09F0DFFE80F30800C0B202F092FC55
:10239000336805F10E0253F82200AA4906F0A8FEA0
:1023A00009F0D0FE80F30800C0B2013502F082FCD3
:1023B000032DD0D1072D336821D1586C9F4906F0E9
:1023C00097FE09F0BFFE80F30800C0B202F072FC75
:1023D00033689A49986C06F08BFE09F0B3FE80F3DF
:1023E0000800C0B202F066FC336893F84C0006F0B7
:1023F00027FE09F0A7FE80F30800C0B20BE02B44D3
:10240000587802F057FC33682B44D87A02F052FC1B
:1024100033682B44587D013502F04CFC0A2DC9D19C
:1024200004E233682B44587802F044FC33682B44B0
:10243000D87A02F03FFC33682B44587D013502F016
:1024400039FC0A2DEDD1F1E12F2002F063FC7E4D25
:1024500015F8010F002800F0E98102F02BFCF7E7E6
:10246000012002F057FC744B1B68187890E550204F
:1024700002F050FC0025704B05F11E021B680C2178
:1024800003EB82035E1C714A5B78013501FB032379
:10249000187A02F00FFC707802F00CFCB07802F0B1
:1024A00009FCF07802F006FC142DE4D1BEE14820CE
:1024B00002F030FC0026062777435F4BC8371B68C5
:1024C00001361F44B87902F0F5FB787802F0F2FB90
:1024D000B87802F0EFFBF87802F0ECFB387902F004
:1024E000E9FB787902F0E6FB0C2EE4D19EE14FF097
:1024F000000801250026564B1B789E4222DA554BD8
:10250000F15C0023514A03EB02099A5C8A4204D031
:102510000C33B3F5A87FF5D112E0D9F8040009F027
:1025200009FE82460DB92F4601E0804408E0574578
:1025300006DAD9F80430D85D02F0BCFB0137F6E7C3
:102540000136D8E7002D00F071815FFA88F002F0C3
:10255000E1FB0025CEE73D4A99189A5C82420CD0F7
:102560000C33B3F5A87FF6D1013533789D4280F066
:102570005D81384BE85C0023EDE7087A02F09AFBB6
:10258000F2E7162002F0C6FBBBF8240102F0C5FBFF
:10259000BBF8D00002F0C1FBBBF8D20002F0BDFBDB
:1025A000BBF8D40002F0B9FBBBF8660102F0B5FB42
:1025B000002002F07FFB002002F07CFB002002F0F4
:1025C00079FB9BF8130102F075FB9BF8200102F0E8
:1025D00071FB002002F06EFB174B1B68B3F956002D
:1025E0000A2390FBF3F080B202F097FB9BF80801FE
:1025F00002F060FB9BF80C0102F05CFB9BF80B0106
:1026000002F058FB9BF80D01C2E4E8B2013502F07C
:1026100051FB092DF9D109E10020C5E0064D042048
:1026200002F078FB2B68B3F85A0002F076FB2B68B7
:10263000B3F85800B8E000BF18090020000020419E
:102640000000C84200007A44D7D6000808D7000826
:10265000C70D0020AC0D00200C2002F05BFBC74B27
:10266000186802F063FBC64B186802F05FFBC54BAD
:102670001868CBE0C44D02F04DFBB5F8E80002F05D
:102680004CFBB5F8EA0002F048FBB5F8EC008BE033
:10269000BD4D072002F03EFBB5F80E0102F03DFBF8
:1026A000B5F8100102F039FB95F8120102F002FBB7
:1026B000B5F8140178E0B44D0C2002F02BFB95F82E
:1026C0001E0102F0F7FAB5F8280102F026FBB5F872
:1026D000240102F022FBB5F8260102F01EFB95F85A
:1026E0001F0102F0E7FAB5F82A0102F016FBB5F86F
:1026F0002C0159E0A44D042002F00CFB95F8640174
:1027000002F0D8FA95F8650102F0D4FAB5F866013E
:102710004AE09E4F9E4D3878002600EB4000C0B244
:1027200002F0F8FA3B7802359E427FD215F8020C8F
:1027300002F0C0FA15F8010C013600EB800000EB46
:10274000800000F2EE2002F0E8FAEBE7082002F049
:10275000E1FA00258C4B2B4493F81601013502F069
:10276000A9FA082DF6D161E0874D102002F0D2FAC7
:10277000687902F09FFAA86802F0D8FA95F81E016D
:1027800002F098FAB5F8E80002F0C7FAB5F8EA00E6
:1027900002F0C3FAB5F8EC0002F0BFFAB5F80E018A
:1027A00002F0BBFAB5F8100102F0B7FA3EE0794B3F
:1027B000754D187805F11006C0EBC000C0B202F0EC
:1027C000A9FA754A95F8780192F9001043B2994236
:1027D00074D092F90C209A4270D00835B54225D0B9
:1027E000EFE70D2002F096FA002002F063FA0020D5
:1027F00002F09CFA06E0694B585D013502F05AFA86
:102800000B2DF8D1002002F091FA002002F08EFA90
:102810000CE0D42B07D0D22B40F0BC83604B1B784C
:102820005B0740F17E83002002F074FA5D4DD5F81D
:102830008030987902F03EFAD5F88030002283F893
:102840004820584B93F8BC305BB325682B6828466A
:102850005B69984718B90A2002F089FCF6E705F091
:1028600049FD514B1A780023D9B2914207D24F4902
:10287000002051F82310013309680880F4E7322062
:1028800002F075FC4A4B1B68590307D53E4B9B6809
:102890005A0303D440F2DC5002F069FC454A464B2F
:1028A000DA60464E4C34B4427FF4B2A9444B9B6884
:1028B000002B00F07283434898476EE302F0FAF968
:1028C000B5F87A0102F029FA95F87C0102F0F2F9E4
:1028D00095F87D0102F0EEF995F87F0102F0EAF932
:1028E00095F87E0102F0E6F977E74C2B0DD102F066
:1028F00026FA254D85F8640102F021FA85F8650174
:1029000002F028FAA5F866018DE700F28B81372BDB
:102910005CD16B790726B3FBF6F6C6EBC6029B1AB1
:1029200013F0FF0F02D003F099FA7CE7F6B2002E05
:102930003FF479AF02F003FA234BC0B21D6843B2F3
:1029400095F902209A4208BF023504D095F90A2071
:102950009A42E8D10A35287002F0FCF9688002F04A
:10296000EEF9287102F0EBF9687102F0E8F9E8710C
:1029700002F0E5F9013EF6B2A871D8E7E8F7FF1FCB
:10298000ECF7FF1FF0F7FF1FA0020020B00E0020A1
:10299000CE030020C40B0020C80B0020A8DA0008DA
:1029A000E6180020D00E0020600A0020140D002040
:1029B000BC0000200400FA0500ED00E0600E0020DD
:1029C0001C0900208E0F0020C00B002000F2C180E7
:1029D000292B11D102F0BEF9C84DA5F80E0102F065
:1029E000B9F9A5F8100102F0AAF985F8120102F070
:1029F000B1F9A5F8140116E755D8252B0DD1BF4D17
:102A00000023AB6002F0A6F9064602F0A3F9AB681A
:102A100006EB00400343AB6005E7272B0DD102F026
:102A200099F9B64DA5F8E80002F094F9A5F8EA0086
:102A300002F090F9A5F8EC00F5E6232B40F0AA820D
:102A400002F07DF913283FF66EAFAD4F00F11E087E
:102A50003B6803EB880802F072F9AA4B08F1010504
:102A600003F5A872197A814203D00C339342F9D14D
:102A700059E71B7888F8013002F061F9687002F0BC
:102A80005EF9A87002F05BF9E87038689E4BC6F8F2
:102A9000B8007930C6F8B43003F0B8F99B4B80F039
:102AA00001001870BFE6332B05D102F048F9934BB3
:102AB00083F82001B7E6352B26D102F040F90B2828
:102AC00005463FF630AF8E4B1E6802F038F90328FA
:102AD0003FF629AF062303FB056686F8CE0002F019
:102AE0002EF986F8C90002F02AF986F8CA0002F029
:102AF00026F986F8CB0002F022F986F8CC0002F025
:102B00001EF986F8CD008EE62D2B40F0438202F0B0
:102B100016F97A4E86F81E0102F01CF9A6F8280173
:102B200002F018F9A6F8240102F014F9A6F826011B
:102B300002F005F986F81F016B79082B7FF673AE5A
:102B400002F008F9A6F82A0102F004F9A6F82C010F
:102B500069E6412B00F013822CD83C2B09D1684D3B
:102B60002E6802F0ECF830702B68187802F04CFBFD
:102B700059E63E2B09D102F0E2F8604D85F86E016E
:102B800002F0DDF885F86D014DE6392B40F0028248
:102B900002F0D5F8594D85F8080102F0D0F885F813
:102BA0000C0102F0CCF885F80B0102F0C8F885F8AA
:102BB0000D0138E6442B03D1012386F8BC3032E600
:102BC0004A2B04D102F0C6F84C4B98812BE6432BDC
:102BD00040F0E081494D02F0B2F80023AB6002F012
:102BE000B9F8064602F0B6F8AB6806EB00400343BE
:102BF000AB6002F0A4F885F81E0102F0ABF8A5F86E
:102C0000E80002F0A7F8A5F8EA0002F0A3F8A5F89A
:102C1000EC0002F09FF8A5F80E0102F09BF8A5F871
:102C2000100100E6D02B0BD1394B1B785F073FF525
:102C3000FAAD04F0CDFC05F0B9FA04F02BFBF2E597
:102C400000F26481CC2B3CD16B79092B7FF66BAE03
:102C5000304E376802F073F83870376802F06FF85A
:102C6000787002F06CF833686428A8BF642018718B
:102C700002F065F833686428A8BF6420587102F038
:102C80005EF83368FF28A8BFFF20987102F057F85C
:102C90003768642828BF6420F87102F050F8B870D3
:102CA000376802F04CF8F870376802F053F8788112
:102CB0006B790A2B7FF6B7AD356802F040F82872C1
:102CC000B1E538D8C82B44D16D796D08122D3FF687
:102CD0002AAE0026AE4206D202F03CF80FAB23F833
:102CE00016000136F6E70023AB420B4A16DA0FA9AD
:102CF00031F8131022F813100133F5E7A002002079
:102D00001809002008D700087003002018000020D0
:102D1000E61800205C0A0020600F0020013D02EB55
:102D200045052232954203D0002325F8023FF9E7FA
:102D300001229B4B0BE0CE2B40F0A580994B1B78DA
:102D40005D073FF570AD984B1A7842F004021A7097
:102D500069E5CA2B6CD1954E002533681B78022B90
:102D600053D1376801F0EBFF06F06AF9904906F09D
:102D700073FA05F1080847F82800376801F0DFFF0B
:102D800005F10A0307EB830706F05AF9894906F0B3
:102D900063FA7860376801F0D2FF06F051F986498E
:102DA00006F05AFA05F10E080135032D47F8280000
:102DB000D7D1072D376816D101F0C1FF06F040F9D1
:102DC0007B4906F049FA7864376801F0B8FF06F0ED
:102DD00037F9774906F040FAB864376801F0AFFF79
:102DE00087F84C000DE001F0AAFF2F447870376897
:102DF00001F0A5FF2F44F872376801F0A0FF2F44BF
:102E0000787501350A2DD4D10DE5376801F097FFAB
:102E10002F447870376801F092FF2F44F8723768BA
:102E200001F08DFF2F4401350A2D7875EDD1FAE4BC
:102E30004E2B40F0AF806F790323B7FBF3F7122FCF
:102E40003FF671AD5D4D0026BE42BFF4ECAC01F023
:102E500076FF85F82E0101F07DFF40F2ED239842C8
:102E600005DD40F6CA039842A8BF184601E040F2CB
:102E7000EE20A0F2EE20192390FBF3F085F82F014D
:102E800001360235E0E737D901F064FF6FF4AF6E29
:102E900000EB0E039BB2494DC62B98BFA5F8240149
:102EA00001F058FFA5F8D00001F054FFA5F8D200BA
:102EB00001F050FFA5F8D40001F04CFFA5F8660121
:102EC00001F03DFF01F03BFF01F039FF01F037FF5A
:102ED00085F8130101F033FF85F8200101F02FFF81
:102EE000324B1E6801F036FF00EB80004000A6F870
:102EF000560001F024FF4EE62A4B1B785E073FF593
:102F000092AC2F4B4FF4C8721A808CE4D62B2DD084
:102F100013D8D32B7FF47DAC01F01CFF294B188014
:102F200081E401F00CFF254B022883F8EC047FF6C6
:102F300082AE002283F8EC247DE6F22B3FF473ACE2
:102F4000FA2B05D1174B1B7858077FF574AE21E09B
:102F5000EF2B1FD1154D2E6801F0FCFEA6F85A008C
:102F60002D6801F0F7FEA5F858005CE4002501F09B
:102F7000F1FE154B58530235102DF8D153E40025BE
:102F800001F0DDFE0D4B2B440135082D83F81601B1
:102F9000F6D148E402F062FF48E419B0BDE8F08FD2
:102FA000FD010020E61800209A02002018090020E8
:102FB000000020410000C84200007A44A002002026
:102FC0009A090020480A00207A0B0020A2492DE926
:102FD000F04F0A68A14802F59C4320330360A04BE0
:102FE00087B01E78C6B118465B689A4240F20B81E2
:102FF000013E067007E12B68072C98BF195D994BBD
:1030000088BF21461B6898489847032C0CD99449DF
:10301000013601EB44042081934BF4B21A78934DAE
:10302000A2421A46E7D81EE02B6804F10E0203EB19
:1030300082029388D2880028E9D0C01A4FF47A71AE
:103040004843D31A90FBF3F0084440F6C903984272
:1030500005DC40F2EE239842B8BF184601E040F686
:10306000CA0080B2D3E7824B42F201091B6803EA2F
:103070000909D9F101097F4B38BF4FF00009D3F896
:1030800000A07D4BB9F1000F06D17C490978197079
:103090007B4908787B4908701E781EB1794B1E78F1
:1030A00086F001066E480F2380F82C30764B92F89C
:1030B00000801F780322B7FBF2F202EB4202BA1A39
:1030C000D2B200F12E0303EB42020024D5F800B087
:1030D0004FEA480C0292254664455BD016B16B4B13
:1030E000E05A00E03046BBF81430834206D8BBF803
:1030F0001610814234BF0021012100E00021644B01
:10310000F1B953F825309A4502D2624BE05A1BE0E0
:10311000EBB218460193CDF800C005F011F9019B00
:10312000DDF800C0032B0FD84FF0010E0EFA05FE9C
:103130004B4B93F82C1021EA0E0183F82C1003E07E
:103140000AF5167143F81410B9F1000F1DD1029A57
:10315000434B04EB4401505293F8762022B9022FDE
:1031600013D9012083F876004B4B581831F803E04F
:1031700041884A337144B0F804E0714489B2E152A5
:1031800008B2032390FBF3F080B2424B0135E052CA
:103190000234A1E7324B374A93F82C10B1F10F07F4
:1031A0007942794183F890103C4B69B13C490968F8
:1031B0004E0109D41268D9689A60521AC82A1ED9D9
:1031C000012283F821201AE02D48012101702D48A9
:1031D000126801709968DA605B68521A9A4203D9E2
:1031E0002E4B002283F821200024444507DAE0B268
:1031F00005F0A6F8274B23F814000134F5E7224B1D
:103200001A7801321A701A4E3368DD0405D5244B42
:103210001B68DC0701D401F005FD0F4B1D68134B43
:1032200019688B7A002B3FD01A4A013B32F8130001
:103230000B7B1BB1C0F53B60083080B200B2A0F53B
:103240007A70B0F57A7FA8BF4FF47A7020EAE07008
:1032500005F0FAFE13495CE0D41800202402002097
:10326000900F002024000020B00E0020C400002099
:10327000BC000020CC180020B0000020B8000020C6
:103280000100002000000020660E0020980F0020A2
:10329000680E00202A020020BE0F0020480B0020EC
:1032A0005002002000007A44326810043AD58C4A5B
:1032B000D2F89400281A002834DB05F59C40203011
:1032C000C2F894008748C97A4479874830F81400D6
:1032D00080B290FBF1F092F89810013101F00F01EB
:1032E00082F898100A4482F8990018467F4A9A5C3E
:1032F00001331044102B80B2F8D100B290FBF3F0F0
:1033000000B26428A8BF642020EAE07005F09CFEAB
:10331000774905F0A1FF774905F0EAFE06F0D4F8F9
:10332000754B18803368754C13F4807F00F0008172
:10333000734B744F9D4203D9BB780BB90123BB700B
:10334000BB78002B00F0F4806E4B94F8008093F86B
:1033500021506D4B6A1E554255411A68002DC2F32B
:1033600080690CBF03220022C8F380089A460292AB
:1033700097F82030052B00F2D680DFE803F0034EEB
:103380005378859EB8F1000F3AD0604B1868604BB7
:10339000198805F001F8012809D15E4B64211A68EB
:1033A0004F4BD3F8AC30DB8801FB03233B61B9F111
:1033B000000F0DD04A4BD3F8AC301B7943B103F06A
:1033C0004FFB032387F820304FF47A73FB61CFE77C
:1033D000002D40F0A8804F4B3A691968DFF824B1FE
:1033E000914209D903F03CFB03228BF8202040F6E0
:1033F000B832CBF81C20BBE701228BF82020B7E7BE
:103400004FF48060B9F1000F02D001F033FC01E00D
:1034100001F040FC00233B6185E0002D45D103F025
:103420001FFBA5E725B1052387F82030012100E027
:103430002946B8F1000F0DD0344B1B68DA89364BA2
:103440001A805A809A80264AD2F8AC205288DA80B4
:10345000022202922F4B1A687B699A4202D8B8F175
:10346000000F5DD147F23053FB6103231EE0237848
:1034700043F00203237001F0D5FB264B1A68FB6969
:103480001344BB61042311E0224B1A688DB1BB6960
:103490009A4248D9214B1B781BB9DAF80030DB0778
:1034A00041D4237823F002032370052387F82030CA
:1034B0005EE7FB691344BB6135E0164B08481A68A8
:1034C000D0F8AC306421DB884FF4806001FB03232B
:1034D0003B61002387F82030FB7001F0DBFB47E7FE
:1034E000900F0020440D0020540D002029100020D2
:1034F0000000C84200C07F445E0F0020E618002094
:10350000404B4C00480B002050020020600E002071
:10351000640E0020CC1800202A0200201800002091
:1035200000297FF425AF029A12B1104601F058FB32
:10353000984D05F58B70B5F8DE1004F02DFF804630
:1035400078B901F085FE944B0022C3F8B080C3F82F
:10355000B480C3F8B880C3F8BC20C3F8C020C3F857
:10356000C42023785F0743D53368D80640D58B4BFA
:103570001B78D9063CD48A4B874F93F80090B9F159
:10358000000F11D095F86E31B8F1000F16D173B15C
:10359000844B1A68D7F8C8309B1A002B07DA01F061
:1035A00041FB87F8CC8023E0B8F1000F19D110203F
:1035B00001F016FB012387F8CC3019E03BB1794AC2
:1035C0004FF47A71126801FB0323C7F8C83097F8EB
:1035D000CC306BB101F0EEFA6F4B002283F8CC20B7
:1035E00006E097F8CC301BB101F0E4FA87F8CC90F4
:1035F000002295F86C9195F86D11B5F826E1B5F8B3
:1036000028C19246684F4FEA9A0AD05F023270454D
:10361000C4BF6AF07F035FFA83FA6045B8BF4AF01F
:10362000400A082AEED15C4A92F8CD0093465045F4
:1036300005D192F8CE20F92A04D8013200E0002208
:103640008BF8CE20564A8BF8CDA01078574FD8B9BA
:103650003A68D20708D5B8F1000F15D12278D30700
:1036600012D503F033FA0FE0227850070CD5504AF8
:1036700012784AB14F4AD27832B911B101F0D2FA78
:1036800002E0B8F1000FF9D09BF8CE20DFF84081BE
:10369000142A40F0AF80424B19F100091A7818BF84
:1036A0004FF0010942B3BAF15F0F0ED1227802F058
:1036B000040202F0FF01A2B90B20019101F090FA7F
:1036C0000199354880F8CE1016E0B9F1000F13D0FB
:1036D000BAF17D0F10D1227802F0040202F0FF014E
:1036E00012B101F09FFA07E00B20019101F078FA86
:1036F0000199294A82F8CE10227802F0040202F0E1
:10370000FF01002A76D1BAF1570F10D12A4B4FF49E
:103710007A721A80294B1B685A0702D5284A0A2157
:10372000118013F0080365D1264A138062E03268E5
:10373000530716D5BAF15A0F13D1234B1A781AB181
:1037400019700122214B22E09BF8CF3083F0010356
:103750008BF8CF300BB10C2000E00D2001F040FAC7
:1037600048E0BAF15D0F00F01C84BAF15B0F00F085
:103770001A84BAF15E0F2DD1032000F015BCBAF106
:10378000A70F40F02F84054B1A7842F004021A70FC
:1037900030E000BFA0020020900F00209A0200201D
:1037A00018000020CC1800202A020020500200201F
:1037B000B0000020480B0020E2180020600200202A
:1037C000E0180020040A0020C5090020C6090020D6
:1037D00018090020BAF1560F01D103F0EFFEAA4BF1
:1037E0001A78002A00F0F583BAF16F0F40F0EA83EF
:1037F00003F06CF93368580731D59BF8CF309BB193
:103800002378590710D5A148B5F82631B0F906201C
:103810009A4209DD3B6813F0010305D19C4A32212D
:1038200011809C4A82F8CF303B68DA030AD59A4B64
:103830001A782AB9994A127812B9954A3221118018
:1038400001220BE0954B1A784AB1227802F004026B
:1038500002F0FF011AB91970914B01221A70D8F8C1
:103860000090002309F1790A3B6009F17B04984636
:103870000AF1020303EB080113F808204B7814F84F
:10388000010C9A420AD2214603F0C6F830B114F86E
:10389000023C01229A403B6813433B6008F1040854
:1038A000B8F1500F04F10404E2D17E4B1F783FB110
:1038B0007D4C7E4F236813F0020F40F00C8304E32D
:1038C00009F1C90809F1CA0408F10103D919DA5D3F
:1038D0004B7814F8010C9A4229D2214603F09CF847
:1038E00028B394F802E02079714B0EF1FF3E4FF0BF
:1038F0000C0C0EEB4E0E0CFB00FC9E44654B94F83A
:1039000003A003F1D00909EB0C02516871450ED0F8
:10391000002109F80CA0C2F804E09160012202FA2B
:1039200000F093F8002122EA000083F80001063736
:10393000482F04F10604C7D15E4BDFF888911C685C
:103940005D4B4FF000081B6802935C4B1B780393A0
:10395000D9F80030002B00F0AF821F78002F00F064
:10396000AB82D9F804200298821A002A0DDB0121CB
:1039700001FA08F100F5FA72C9F80420454A92F8F4
:10398000000120EA010182F80011039A002A00F0E8
:10399000938219F8041C58780431C9B23D4A0028B2
:1039A00040F04C82394830F91110B5F8240100F18B
:1039B000C80E714502DD93F802A016E0C8388142B6
:1039C00003DA9B78C3F1000A0FE0012303FA08F33E
:1039D000304991F8002122EA0303029A81F800316C
:1039E00002F5FA73C9F8043066E292F8002142FA4F
:1039F00008F2D30700F16082BAF1000FCCBF0220B9
:103A0000012001F01BF97A1E132A00F24C82DFE834
:103A100012F014001E002B005B0070007700D40031
:103A200031018E01C101EB014A025B0066007700A3
:103A3000D4003101AA0007016401227802EB0A03D5
:103A4000FA2BA8BFFA2323EAE373237008E0627815
:103A500002EB0A03642BA8BF642323EAE3736370B9
:103A6000204601F0EDF91EE2E278204602EB0A035F
:103A7000642BA8BF642323EAE373E370104B196837
:103A800001F09AF90FE200BF180000202A0200207E
:103A9000AC090020900F0020C4090020C5090020B7
:103AA000C6090020E8180020500200206002002013
:103AB00058D800085C0A0020CC180020B000002074
:103AC000840F00206410002062795244642AA8BF49
:103AD000642222EAE2720D2F627100F0E481227901
:103AE00002EB0A03642BA8BF642323EAE373237168
:103AF000D9E1A27902EB0A0383F30803A371D2E1AF
:103B0000A04A12681178022922D15046019205F08C
:103B10009BFA9D4905F0A0FB019A516A05F0E0F976
:103B20000021009005F082FC019ADDF800C050B938
:103B30006046964905F098FC019ADDF800C020B176
:103B4000DFF848C201E04FF0000CC2F824C007E0E3
:103B500091785144C829A8BFC82121EAE171917028
:103B60000F2F00F0A081874A17683A78022A1AD1ED
:103B7000504605F069FA844905F06EFB396A05F094
:103B8000AFF90021824605F051FC38B950467F4913
:103B900005F06AFC20B1DFF8F4A101E04FF0000A63
:103BA000C7F820A07FE17A7802EB0A03C82BA8BFF0
:103BB000C82323EAE3737B7075E1724A12681178B7
:103BC000022922D15046019205F03EFA6F4905F0D4
:103BD00043FB019A116B05F083F90021009005F079
:103BE00025FC019ADDF800C050B96046674905F030
:103BF0003BFC019ADDF800C020B1DFF890C101E084
:103C00004FF0000CC2F830C007E0117B5144C829C6
:103C1000A8BFC82121EAE1711173102F00F0438180
:103C2000584A17683A78022A1AD1504605F00CFA19
:103C3000564905F011FBF96A05F052F90021824658
:103C400005F0F4FB38B95046504905F00DFC20B1A1
:103C5000DFF838A101E04FF0000AC7F82CA022E1FC
:103C6000FA7A02EB0A03C82BA8BFC82323EAE3733E
:103C7000FB7218E1434A12681178022922D150469A
:103C8000019205F0E1F9424905F0E6FA019AD16B9B
:103C900005F026F90021009005F0C8FB019ADDF837
:103CA00000C050B96046394905F0DEFB019ADDF8E5
:103CB00000C020B1DFF8D4C001E04FF0000CC2F822
:103CC0003CC007E0917D5144C829A8BFC82121EA22
:103CD000E1719175112F00F0E6802A4A17683A7851
:103CE000022A1AD1504605F0AFF9294905F0B4FA75
:103CF000B96B05F0F5F80021824605F097FB38B95D
:103D00005046224905F0B0FB20B1DFF880A001E069
:103D10004FF0000AC7F838A0C5E07A7D02EB0A032D
:103D2000C82BA8BFC82323EAE3737B75BBE0154A01
:103D300017683A78022A1AD1504605F085F91249D7
:103D400005F08AFAB96A05F0CBF80021824605F041
:103D50006DFB38B950460D4905F086FB20B1DFF800
:103D60002CA001E04FF0000AC7F828A09BE0FA78E9
:103D700002EB0A03C82BA8BFC82323EAE373FB7036
:103D800091E000BF880F0020000020410000C842E1
:103D900000007A44AE4A17683A78022A1AD150468F
:103DA00005F052F9AB4905F057FA796B05F098F830
:103DB0000021824605F03AFB38B95046A54905F086
:103DC00053FB20B1DFF88CA201E04FF0000AC7F8E6
:103DD00034A068E07A7B02EB0A03C82BA8BFC82393
:103DE00023EAE3737B735EE0994A17683A78022A04
:103DF0001AD1504605F028F9974905F02DFA396C8B
:103E000005F06EF80021824605F010FB38B95046E7
:103E1000904905F029FB20B1DFF838A201E04FF00E
:103E2000000AC7F840A03EE0FA7D02EB0A03C82B67
:103E3000A8BFC82323EAE373FB7534E0012832D11D
:103E400093F802E0854B33F91110B1F5617F05DB82
:103E500040F633039942B8BF0B4601E04FF461735B
:103E60000C2F20D14FF49660A3F5617390FBFEF008
:103E700093FBF0F092F80131C0B2834213D00328D3
:103E800094BF034602238BF8013107FB0353744AA6
:103E900003F2EE431360019000F0ECFF0198013053
:103EA000C0B200F0CBFE012202FA08F26D4B93F88B
:103EB00000110A4383F8002108F10108B8F1040F4A
:103EC00009F10C097FF444ADF2E43368D80510D54C
:103ED000654BDB786BB13B6899070AD5634B1B8850
:103EE00013F001060AD101F0B3F9012000F0C2FE7F
:103EF00004E0012000F0CEFE012300E00023226850
:103F000052070DD563B1012000F0C4FE574B1B884A
:103F10009B0708D401F09CF9022000F0ABFE02E000
:103F2000022000F0B7FE3B6813F00A0F26D023688A
:103F3000DF060BD54D4B1B885E070AD4042000F02A
:103F400099FE4B4B1A884B4B1A8002E0042000F07C
:103F5000A1FE2368980607D5444B1B88590606D452
:103F6000402000F087FE02E0402000F093FE23682E
:103F70005A0603D53E4B1A883F4B1A8023684FF4EC
:103F800080701B0502D500F075FE01E000F082FE96
:103F90006B79082B01D00E2B57D1402000F07AFE10
:103FA00053E0012000E002205FFA80F909F1FF33BD
:103FB00085F8EC3404F0FAF803F06CF9484600F0A8
:103FC0003DFE17E4B9F1000F03D0BAF17E0F3FF4C4
:103FD0000FACBAF1970F7FF4D2AB284B4FF4C872F5
:103FE0001A8007E40022BAF1BB0F059201D1022327
:103FF00004E0BAF1B70F04D14FF6FE73ADF81630F6
:104000000CE0BAF1BE0F01D1022305E0BAF1BD0FF9
:104010007FF4F0AB4FF6FE73ADF81430D8F80030F3
:10402000BDF81410B3F858200A44A3F85820BDF87E
:104030001610B3F85A200A44A3F85A2003F0BEFA27
:1040400000238BF8CE30FFF7D5BB07B0BDE8F08F6B
:10405000880F00200000C84200007A442A02002095
:104060005C0A0020900F0020480B00202202002054
:10407000040A0020480A0020100F00209A0900209E
:10408000084BDA68D10709D4DA68520708D4DB682C
:1040900013F0100F0CBF042003207047012070475D
:1040A000022070470020024030B50022134621490B
:1040B00014180C5D83EA0423082413F4004F4FEA1C
:1040C000430318BF83F4815304F1FF3418BF83F016
:1040D000010314F0FF049BB2EFD10132192AE6D19B
:1040E00000F119028D5C00F11A028A5C02EB0522D4
:1040F00092B29A421DD1104B1D782346DAB2AA42E1
:1041000014D2441C04EB4202D2B28C5C01328A5CB1
:1041100002EB0424A4B24FF4AF625443074A2413C1
:1041200004F5487422F813400133E7E7044B0122F9
:104130001A7030BD94100020BB0E0020B610002075
:10414000FC01002003788B4283BF034B03EB41014A
:10415000488C0020704700BF9410002003788B42E9
:104160000AD9064B1A78064B53F8210002B14008D1
:1041700000F5777080B270470020704780170020EC
:10418000E400002007299ABF024B33F821000020E9
:10419000704700BFDC010020024B33F81100C0085B
:1041A000704700BFA401002008B5074B53F8210059
:1041B00004F046FF054904F09BFF054904F090FE1A
:1041C00005F082F980B208BD180100200000203FF0
:1041D00000005C44014B33F811007047600F002071
:1041E000014B33F81100704700020020014B33F8F7
:1041F0001100704700020020002070478C46654B7C
:1042000065492DE9F04F1B684C899846220200232E
:104210004FF00009B8EB020869EB03098A88002710
:1042200016040A8989B0A2FB084502FB0955E20978
:1042300042EA4562B4184A884FEAE5134FEAC236AB
:10424000CA8847EB0305CDE90645A2FB084502FBFA
:104250000955220A42EA056216EB020A8A894FEAE8
:104260002523A8FB024502FB09554FEAD4524FF023
:10427000000742EA452247EB030B12F5FA664FEAC4
:10428000E55343F10007CDE90467B6F5FA6F77F11E
:104290000007019060DAA2FB026702FB03F107EB63
:1042A00041070521A6FB014501FB0755DDE906672E
:1042B00069104FEA3400361A67EB0107CDE906674B
:1042C000DDE90401A608354C46EA8576AF104FF0CB
:1042D000FF35BAEB060A6BEB070BA042A94128DABF
:1042E000DDE9066740F6AC5412194FF0000543EBC8
:1042F000050302FB03F1A2FB02236FF0060403EBAC
:104300004103514204FB0311A2FB044536190D443D
:104310004FF00B0147EB0507A2FB014501FB0355DD
:10432000CDE906676D104FEA3404BAEB040A6BEB73
:10433000050B08FB09F3DDE90401A8FB088909EB7B
:1043400043094FEAD87242EA49024FEAE973801AF8
:1043500061EB0301CDE90401114B019E1A68A2FB38
:104360000A4502FB0B55620D42EAC5226B15DDE9D9
:104370000645121B63EB0503D40B44EA434406B124
:104380003460BCF1000F02D0049FCCF8007009B07B
:10439000BDE8F08F78130020940D002024FAFFFF71
:1043A0007C130020016B0346C26810B5406941B11F
:1043B000196C541A005D013918BF0A46C0B21A645C
:1043C00010BD196A405C0131914228BF0021C0B282
:1043D000196210BD036B13B15A68036C01E0C26926
:1043E000036A9A4237BFC068C3EB02008018C3EB70
:1043F0000000C0B27047436B13B190F8440070479F
:10440000826A436AD31A584258417047436A816AA4
:1044100002698B4238BF9B185B1A416B21B1496816
:104420000B44511E8B4203D2013AD31AD8B27047C3
:1044300000207047334A10B5136C90681944081A6D
:1044400040F68C2398429160D060516013463CD96D
:10445000127893F945108A420BD1111F082908D808
:1044600093F84610182901D8013103E083F844205D
:1044700002E0002183F8461093F944108A421CD1CF
:10448000204991F84710C1B1002191421E4806DA37
:1044900003EB8104246920F811400131F5E7511E36
:1044A00000EB41011630814203D0002421F8024F75
:1044B000F9E7164908780130087083F84520002292
:1044C00001211A7083F8471010BD92F84710B9B156
:1044D000A0F2EF2440F2DA518C4208D811780B296F
:1044E00005D80B1D0131117042F8230010BD0022C8
:1044F00083F84720991804320020302A0861F9D146
:1045000010BD00BFEC0B002000020020FE010020C7
:1045100010F80A3C0133DBB20A2B00F80A3C07D939
:1045200010F8131C034A002322F8113000F80A3C4B
:10453000704700BF00020020024B1A6C0132114488
:1045400019647047EC0B0020024B53F820301B68B5
:1045500019807047140D0020074BA1F57A7153F8AC
:1045600020304FF47A701A681B894B4393FBF0F3A9
:104570009BB21380704700BF140D002037B5104B5D
:1045800004465D68187806216A46A847A8B19DF8D8
:1045900000209DF80130012043EA022323809DF88A
:1045A00002209DF8033043EA022363809DF8042033
:1045B0009DF8053043EA0223A38003B030BD00BF5D
:1045C000840D002013B5104B04465B683B20062188
:1045D0006A469847A8B19DF800209DF80130012057
:1045E00043EA022323809DF802209DF8033043EA2A
:1045F000022363809DF804209DF8053043EA0223DE
:10460000A38002B010BD00BF840D00208A6810B5E1
:104610000C6A036814430A6923F4FF4314434A698C
:1046200023F0700314438A691443CA6914434A6A25
:1046300014438A6A224313430360CB6843600B68C8
:1046400083604B68C36010BD02684FF6FE73134071
:1046500003600023036043608360C3602A4B984279
:1046600022D02A4B984229D0294B984230D0294B4E
:10467000984237D0284B98423ED0284B984206D1DA
:1046800053F8682C42F4700243F8682C7047244BAE
:10469000984206D153F87C2C42F0706243F87C2C8F
:1046A0007047204B984206D153F8042C42F00F0279
:1046B00043F8042C70471C4B984206D153F8182C31
:1046C00042F0F00243F8182C7047184B984206D17C
:1046D00053F82C2C42F4706243F82C2C7047144B86
:1046E000984206D153F8402C42F4704243F8402CD3
:1046F0007047104B984205D153F8542C42F4702265
:1047000043F8542C704700BF080002401C000240D0
:104710003000024044000240580002406C00024059
:1047200080000240080402401C04024030040240A1
:1047300044040240580402401F4B10B55A6802F06E
:104740000C02042A03D0082A04D01C4A14E01C4A94
:10475000126811E05A685968C2F38342C90302F132
:10476000020201D4174906E0596811F4003F1449C8
:10477000096818BF49084A4302605968124AC1F3E0
:104780000311545C0168E14041605C68C4F3022499
:10479000145D21FA04F484605C68C4F3C224145DDF
:1047A000E140C1605B68C3F381331A44137CB1FB01
:1047B000F3F1016110BD00BF0010024000127A0049
:1047C0001C00002000093D0094D8000810B50446E4
:1047D000FFF756FC012806D11CB1FFF751FC013C44
:1047E000F8E7052010BD002C08BF052010BD7C4B4C
:1047F00070B51B78012B0CBF0325002599BB048CD9
:1048000024F001042404240C0484038B048C9BB244
:1048100023F0F30343F0010343EA0515714BA4B2FF
:10482000984215D003F50063984211D0B0F1804F43
:104830000ED0A3F5983398420AD003F580639842CE
:1048400006D003F58063984218BF24F00A0401D112
:1048500024F0020444F00104224305830284038B04
:1048600023F00C033AE004293FD1048C5D4B24F083
:1048700010042404240C0484018B048C21F4407162
:104880000905090D41F480719842A4B241EA053549
:1048900012D003F5006398420ED0B0F1804F0BD0D8
:1048A000A3F59833984207D003F58063984203D06C
:1048B00003F58063984207D124F0200444F01004EB
:1048C00044EA021292B204E024F0A00444F010047E
:1048D000224305830284038B23F440631B041B0CD7
:1048E0000383038B9BB2038370BD0829018C37D1EE
:1048F00021F480710904090C0184838B048C9BB220
:1049000023F0F30343F0010343EA0515354BA4B24A
:10491000984212D003F5006398420ED0B0F1804F58
:104920000BD0A3F59833984207D003F580639842E3
:1049300003D003F58063984207D124F4007444F453
:10494000807444EA022292B204E024F4206444F425
:104950008074224385830284838B23F00C0338E028
:1049600021F480510904090C0184838B068C23F403
:1049700040731B051B0D43F4807343EA0535194B47
:10498000B6B2984212D003F5006398420ED0B0F14F
:10499000804F0BD0A3F59833984207D003F580637E
:1049A000984203D003F58063984207D126F400565D
:1049B00046F4805646EA023292B205E047F6FF54CA
:1049C000344044F48054224385830284838B23F44F
:1049D00040631B041B0C8383838B9BB2838370BD5A
:1049E000E80B0020002C014038B510F80E2C0446CE
:1049F00050F8043C52B9012200F80E2C20F80C1C8F
:104A0000997A18680222BDE83840F0E630F80C2C9C
:104A100020F80A1C891A89B220F8081C074A10F8E5
:104A20000F0C002522F8101004F80E5C1868997A13
:104A30002A46FFF7DCFE04F8065C38BD00020020C1
:104A40002DE9F8434D4B0C460168023AC3F83A1081
:104A50008188D987062A05D8DFE802F0080C1219E8
:104A60001E2226005A8F22809A8F0DE09A8F228074
:104A70005A8F03E05A8F524222809A8F524203E0AB
:104A80009A8F524222805A8F6280DB8F14E05A8FB5
:104A9000524222809A8F0CE09A8F22805A8F08E02F
:104AA0005A8F22809A8F03E09A8F524222805A8F27
:104AB00052426280DB8F5B42A380314B1B78002B1C
:104AC0005AD1B4F9000004F0BFFA8046B4F90200EC
:104AD00004F0BAFA0746B4F9040004F0B5FA294D17
:104AE00006462968404604F003FBE96881463846DB
:104AF00004F0FEFA0146484604F0F2F9A96981463D
:104B0000304604F0F5FA0146484604F0E9F907F0AA
:104B100019FB69682080404604F0EAFA2969814659
:104B2000384604F0E5FA0146484604F0D9F9E96947
:104B30008146304604F0DCFA0146484604F0D0F9DC
:104B400007F000FBA9686080404604F0D1FA69696B
:104B50008046384604F0CCFA0146404604F0C0F9DD
:104B6000296A0746304604F0C3FA0146384604F085
:104B7000B7F907F0E7FAA080BDE8F88394100020A9
:104B8000200000205C0D0020094B44F6FB711B68DF
:104B90001A7802EB421200FB021059789B78C1EBA5
:104BA0000131B0FBF1F0B0FBF3F080B2704700BF11
:104BB000C00E0020054A00231370054A1370054AF1
:104BC0001360054A1380054A13607047480F0020A0
:104BD000440F0020400F0020460F00203C0F002013
:104BE00000B9E7E700230B495A18595C814203D00A
:104BF0000833802BF7D1704707490B681BB15078F9
:104C00005B78984205D20A60044A00231380044A64
:104C100013607047A8D800083C0F0020460F002002
:104C2000400F0020044B1A78510704D522F00402EB
:104C300004201A70D4E77047E618002010B5400031
:104C40001428A8BF14200023094A022402F14001BD
:104C50005C54234419441424834201F8014CF3DBCF
:104C60001344FF2283F840200F20BDE81040B7E72F
:104C700094100020064B10B51A881C461043904231
:104C8000188002D00120FFF7D9FF208810BD00BF97
:104C900022020020064B10B51A881C4622EA0000AA
:104CA0009042188002D00120FFF7C8FF208810BD75
:104CB00022020020064B10B50446186821460368FE
:104CC0001B689847034B1B689A7954409C7110BD30
:104CD000540F0020500F002038B5044624200D4604
:104CE000FFF7E8FF4D20FFF7E5FF002C084C0CBF55
:104CF0003E202120FFF7DEFF2368002228469A711C
:104D0000FFF7D8FF236893F84900BDE83840D1E7A2
:104D1000500F002001460020DEE710B50446C0B267
:104D2000FFF7C8FF200ABDE81040C3E710B50446EE
:104D300080B2FFF7F2FF200CBDE81040EDE7044B16
:104D40001B68DA79511CD9711344187A704700BF77
:104D5000500F002010B5FFF7F2FF0446FFF7EFFFFA
:104D600004EB002080B210BD30B50D4B0D4A1C681D
:104D700092F85630012B0ED8591C04EBC3039D88C2
:104D8000C9B2284203F1020303D082F85610184634
:104D900030BD0B46EEE782F85630002030BD00BF34
:104DA000C00B002094100020024B002283F85620F4
:104DB000DAE700BF941000202DE9F0478278C6782A
:104DC0001E4BC2F1640802EB820C54425FFA88F871
:104DD0004FEA4C0CC6F16409A4B203F11807A5B25E
:104DE00028B2002804DC002D14BF1546012500E080
:104DF000454600FB00FA6D430AFB06FA9AFBF5F5FF
:104E00004D4468434FF00A0A90FBFAF0604480B2C8
:104E100058800D88B1F802A000B2C5EB0A0A00FB69
:104E20000AF04FF47A7A90FBFAF0054423F8025F17
:104E30000A34BB42A4B2D2D1BDE8F087F60E0020FE
:104E400010B544780078002303FB03F1193961435E
:104E500001F6C4115943414340F6C41291FBF2F1EB
:104E6000034A22F813100133072BEDD110BD00BF08
:104E7000D00E002010B50D4C2068FFF7E1FF206830
:104E80000023047A03FB03F11939614301F6C411CD
:104E90005943192291FBF2F1054A22F8131001330C
:104EA000072BEFD1BDE81040024985E75C0A0020DE
:104EB000DE0E00207003002010B50A4A0A4913686C
:104EC000886800BF12689342F7D1084A11684FF40E
:104ED0007A7202FB01F4201AB0FBF1F002FB03002E
:104EE00010BD00BFCC18002010E000E0A00B002097
:104EF000F8B50746FFF7E0FF2B4E2C4CB36D2C4D59
:104F0000C31AB3F5FA5FF365B06502D900232370C5
:104F10002B7023781BB9A12F04BF01222A702A7895
:104F20001AB1FFB2F75401332370224B21781A785B
:104F30001F46914236D1204B1B78052B02D0062B01
:104F400003D02CE00020FFF7AFF873781E2B26D19A
:104F50003878002201381346D1B2814219DA775CE1
:104F600019463B46082781EA030C1CF0010F1CBFC1
:104F700083F01803C3F3460307F1FF370CBF5B0848
:104F800043F0800317F0FF07C1F34701EBD1013273
:104F9000E2E7325C934202D10320FFF785F8002359
:104FA0002B702370F8BD00BF94100020B90E0020B4
:104FB000B80E0020BA0E0020BC0E002010B504462A
:104FC000FFF77AFF0D4B41F288311A6E1866821A8C
:104FD0008A425A6684BF002283F8682093F86830BA
:104FE000074AE4B20F2BD45403D1064B01221A70A6
:104FF00010BD024A013382F8683010BD94100020C1
:10500000D1000020C800002010B50446FFF754FF6F
:105010000D4B41F28831DA6ED866821A8A421A67DD
:1050200084BF002283F8742093F87430074A142B4D
:10503000D45403D1064B01221A7010BD024A013329
:1050400082F8743010BD00BF94100020C50100200C
:10505000C401002010B50446FFF72EFF244A936FC9
:105060009067C31AB3F57A6F84BF002382F87C304F
:1050700092F87C3033B9A82C39D11E490B701E49E7
:105080000B8006E0022B02D11C490C7001E0242B9E
:1050900001D81B49CC540133DBB282F87C30174A6B
:1050A000127802325200934217DA134AE0B21388A0
:1050B00083EA0020082310F4004F4FEA400018BF95
:1050C00080F4815003F1FF3318BF80F0010013F02A
:1050D000FF0380B2EFD1108010BD0132934206D1A0
:1050E000034B002283F87C20024B01221A7010BD72
:1050F00094100020790100207C0100207A0100201A
:105100007E01002010B50446FFF7D6FE0F4B40F697
:10511000AC51D3F88020821A8A42C4BF002283F89F
:10512000842093F884200A498C5422B90F2C0CD186
:105130000649C1F880000132D2B283F88420192ACE
:10514000044B0CBF012200221A7010BD94100020E5
:10515000600100201401002038B50446FFF7ACFEC2
:105160000546FFF7A9FE401BA042FAD338BD10B593
:1051700004462CB14FF47A70FFF7EEFF013CF8E7DC
:1051800010BD054A08B5536823B192F90020824248
:1051900000D1984708BD00BFA40B0020174B2DE994
:1051A000F0410746188890460C4603F049FF144921
:1051B00003F09EFF0646404603F046FF114903F008
:1051C00097FF01464FF07E5004F046F8314603F059
:1051D00087FE0146304604F03FF82568064629461A
:1051E000384603F07BFE0146304603F081FF01465E
:1051F000284603F075FE2060BDE8F081180A002003
:10520000BD378635DB0FC94001380A4B042804D866
:10521000DFE800F00507090B0D00074A08E0074A20
:1052200006E0074A04E0074A02E0074A00E0074AAE
:105230001A607047340000204D7C0008417000085F
:10524000F56C000871610008655E000829640008BB
:10525000044B00221A605A60034B00221A605A6005
:10526000704700BF38130020A012002080EAE073CE
:10527000A3EBE0738B4206DB002801DD401A704788
:1052800002D0084470470020704770B5044604F00F
:10529000F5F82030402857D820462C4904F0E4F88F
:1052A00028B120462A4903F019FE0446F4E72046B7
:1052B000284904F0BBF828B12046254903F010FE28
:1052C0000446F4E72046244904F0CEF830B12249E0
:1052D000204603F003FE01461F480AE020461F490E
:1052E00004F0A4F840B11C49204603F0F9FD014642
:1052F0001A4803F0F3FD04462146204603F0F8FE69
:1053000005462946204603F0F3FE15490646284681
:1053100003F0EEFE134903F0E1FD0146284603F0D9
:10532000E7FE114903F0DCFD0146284603F0E0FEEC
:105330000E4903F0D3FD0146304603F0D9FE014685
:10534000204603F0CDFD70BD002070BDDB0F49404D
:10535000DB0FC940DB0F49C0DB0FC93FDB0FC9BF03
:105360009A7C2E36FAAF4F393587083CA4AA2A3EDC
:10537000024B9A6822EA000098607047A002002061
:105380002DE9F041038A87890446BFB20D461F40CC
:10539000002F36D0B7FA87F34FF00042DA40D243FD
:1053A00091B21B3B21821740042BF1D8DFE803F0B8
:1053B000221F1C1903006B6A33B103F1FF3800236D
:1053C0001FFA88F86B6203E0B4F82C801FFA88F8A3
:1053D0002E6A002EDCD03368304641469847766806
:1053E000F7E72868A18E08E06868218F05E0A868C3
:1053F000A18F02E0E868B4F84010036889B29847CA
:10540000C6E7BDE8F0810C4B800A98420CD003D867
:10541000B0F5801F0ED00BE0084B984206D0493300
:10542000984205D100207047022070470320704742
:10543000FE2070470120704701001000020010009C
:105440002DE9F0410F88002347FA03F2D2072BD54C
:105450008A7803F0070512F0100F18BF91F803C007
:1054600002F00F0618BF46EA0C06AD004FF00F0C15
:105470000CFA05FC06FA05F5DC0850F82480282A09
:1054800028EA0C0C45EA0C0540F8245005D101220D
:105490009A40C46824EA020205E0482A04D10122A5
:1054A0009A40C4682243C2600133102BCCD1BDE8BE
:1054B000F08100BFF8B50468054620460E46174641
:1054C000FFF7A1FF032845D8AB7A9B089AB246B9EB
:1054D0004FF0020C0CFA03F3A18989B221EA03030D
:1054E000A3810A2101FB00211B4B43F821600431F9
:1054F00043F8217046B1AA7A0225920805FA02F211
:10550000A1890A4392B2A281282202FB003000F155
:105510002002EFF31286502383F312880023C11870
:105520000D6915B115600A6904320433102BF6D1E8
:1055300000231360F3B283F31188036A23B1A389B4
:105540009BB243F0010304E0A38923F001031B0491
:105550001B0CA381F8BD00BF84170020F0B5884C58
:10556000884A23689D8AADB2E9B211F0010F32D0AA
:10557000198821F400610904090C1980198889B27D
:1055800041F480611980002111707F4908787F49BA
:10559000A8B1507818B97E480078FF280FD10120B3
:1055A00050707C480078022804D1188880B240F4FA
:1055B00000601880097841F00101198202E1097840
:1055C00001F0FE011982724B1B78FF2B00F0FA806C
:1055D000FF231370F6E08F073CD5BFF35F8F6D4953
:1055E0000878C0B2012814D1674D2D788DB1557857
:1055F0007DB1198821F480610904090C1980BFF379
:105600005F8F198B1988907089B241F400711980ED
:105610001BE0188BBFF35F8F087802280BD15A4824
:10562000007840B1507830B1198821F480610904C4
:10563000090C1980C0E00978032906D1524909787C
:1056400019B15178002940F0B780998889B241F4A6
:105650008061B6E04E075BD5012191704A49097817
:1056600000293AD05178002937D04A491078097872
:10567000494D022919881ED921F480610904090CB9
:1056800019801F8A2E68C1B2FFB240B23754188801
:1056900080B240F4007018808B1C13702368286857
:1056A0001D8A013149B2EDB24554998889B241F45D
:1056B0008061998027E089B241F4007119801E8AC7
:1056C0002D68C1B2F6B240B22E541B8A481C40B2BB
:1056D000DBB203312B54117015E0517811B92F4909
:1056E000097841B1198889B241F4007119801378A1
:1056F0000133137007E0198889B241F48071198071
:10570000204B0121597021680B88D805FCD459E041
:1057100001F0400101F0FF061E48F1B11E49B3F847
:1057200010C00F6811785FFA8CFCCDB26E1C49B2C4
:10573000F6B207F801C01670077876B2F11C8F42F6
:1057400005D1998821F480610904090C99800378B6
:10575000B34237D10235157034E0290632D51178BD
:105760004DB26F1C1ED00E4E01313668C9B2755D48
:105770001170EDB21D82007849B2884222D11BE03F
:105780006013002020110020681300206513002002
:10579000661300207413002070130020671300208C
:1057A0006C130020134916700978C9B21982124986
:1057B000097809B9017829B9998821F48061090427
:1057C000090C99800D4B92F9001018780C4B421C73
:1057D00091420DD100225A709B7833B12268938890
:1057E00023F440731B041B0C9380064B00221A7099
:1057F000F0BD00BF66130020681300207413002062
:1058000020110020751300202DE9F74F7B4B5A78AB
:105810007B4B33F812607B4BB6B21E807A4BB3F9E8
:105820000A209A460A2A1CBF00238AF808309AF8F0
:105830000840754B002C5ED1744A7549DA605A6194
:105840004FF07E529A61734A1961DA61724A1A62A4
:1058500040F2DC52DA651022A3F85A201822A3F88D
:1058600058206E4D4FF097412F19386903F040FCD6
:105870000021804603F0DAFD28B140464FF07C510C
:1058800003F02CFB04E040464FF07C5103F028FB72
:1058900003F056FE05EB4405C5E90E0178684FF0AC
:1058A000974103F025FC0021074603F0BFFD28B116
:1058B00038464FF07C5103F011FB04E038464FF0BE
:1058C0007C5103F00DFB03F03BFE04340C2CC5E9C6
:1058D0000801C6D10A23AAF80A30A6F2DC531B0439
:1058E000CAF87830CAF88430CAF87C30CAF88830F0
:1058F00001238AF80830DAF85CC0BAF95AB0CCEB68
:10590000060606FA0BF6DAF82C10DAF8284071438E
:105910004FEAE679DAF8780004FB0911CAF87860F2
:10592000A4FB0667DAF884500F44DAF84C10DAF872
:10593000484069434FEAE579DAF8882004FB091109
:10594000CAF88850A4FB05450D44DAF83410341B1E
:1059500067EB05054143DAF830604FEAE079DAF8A1
:105960007C3006FB0917CAF87C00A6FB0001001971
:10597000DAF85440DAF8506002FB04F439444FEA94
:10598000E27706FB0744A6FB02672744DAF83C40AF
:10599000CAF88C2003FB04F4DAF8382041EB050147
:1059A000DD17CAF8803002FB0544A2FB0323801BED
:1059B00061EB07012344801841EB0301BAF9582039
:1059C000CDF804C003F078FA0BF1FF33012202FA9C
:1059D00003F3CAF88400C01841EBE3715A4603F0A0
:1059E0006BFADDF804C010EB0C0080B2FFF7CCF8C6
:1059F0000B4B188003B0BDE8F08F00BF440D0020B2
:105A0000540D00201A0F00202011002056157D395A
:105A10005615FD396350FABF0CE0743F2811002081
:105A2000180F0020826A8169436B1144D960416A72
:105A3000914203D98A1A5A60816204E001698A1A84
:105A40005A6000228262002280F844201A6842F0E4
:105A500001021A6070470D4B0278D9684378C94338
:105A6000C1F30221C1F1040103FA01F1084B09015C
:105A7000C9B21A4482F8001302780120510902F0D9
:105A80001F0200FA02F243F82120704700ED00E007
:105A900000E100E0254B10B55343254A254C126820
:105AA0000139B2FBF3F20388013AA04289B292B203
:105AB0009BB212D004F50064A0420ED0B0F1804F2A
:105AC0000BD0A4F59834A04207D004F58064A0421E
:105AD00003D004F58064A04202D123F070039BB28E
